:020000040800F2
:10000000C00800200D0200085114000889100008E3
:100010004D140008E90500087D2A000800000000D2
:10002000000000000000000000000000611900084E
:10003000250D00080000000089160008892200082C
:1000400027020008270200082702000827020008EC
:1000500027020008270200082702000827020008DC
:1000600027020008270200082702000827020008CC
:1000700027020008270200082702000827020008BC
:1000800027020008270200082702000827020008AC
:10009000C1270008270200082702000827020008DD
:1000A000270200082702000827020008270200088C
:1000B000270200082702000827020008270200087C
:1000C000270200082702000827020008270200086C
:1000D00027020008ED220008270200082702000876
:1000E00027020008270200080F2500082702000841
:1000F000270200082702000827020008270200083C
:10010000270200082702000827020008270200082B
:10011000270200082702000827020008270200081B
:10012000270200082702000827020008270200080B
:1001300000F002F800F05AF80AA090E8000C82449F
:100140008344AAF10107DA4501D100F04FF8AFF27C
:10015000090EBAE80F0013F0010F18BFFB1A43F0A5
:1001600001031847E82B0000082C00000A444FF058
:10017000000C10F8013B13F0070408BF10F8014B06
:100180001D1108BF10F8015B641E05D010F8016B4B
:10019000641E01F8016BF9D113F0080F1EBF10F8AF
:1001A000014BAD1C0C1B09D16D1E58BF01F801CBD2
:1001B000FAD505E014F8016B01F8016B6D1EF9D555
:1001C0009142D6D37047000000230024002500266A
:1001D000103A28BF78C1FBD8520728BF30C148BFAA
:1001E0000B6070471FB51FBD10B510BD00F06EF855
:1001F0001146FFF7F7FF02F0B9FC00F0A0F803B4D6
:10020000FFF7F2FF03BC02F057FC000009488047EB
:1002100009480047FEE7FEE7FEE7FEE7FEE7FEE7E8
:10022000FEE7FEE7FEE7FEE704480549054A064B00
:10023000704700008D22000831010008C002002034
:10024000C0080020C0040020C00400207047000047
:100250000FB4044910B503AA029800F009F810BCC5
:100260005DF814FB18000020704770477047704716
:10027000074B70B50D467B4400F011F80446284644
:1002800000F020F810B14FF0FF3070BD204670BD77
:10029000D728000001694A1C02610878704700B540
:1002A0008FB0CDE901310021059105497944CDE9AF
:1002B00003101146684600F02EF80FB000BD000094
:1002C000E5FFFFFF007B00F080007047754600F0FF
:1002D0003FF8AE4605006946534620F007008546C4
:1002E00018B020B5FFF7A0FFBDE820404FF0000692
:1002F0004FF000074FF000084FF0000B21F007010E
:10030000AC46ACE8C009ACE8C009ACE8C009ACE850
:10031000C0098D4670472DE9F04106460024D6E914
:100320000170F5688046304603E04146B847641CDA
:100330003046A8470028F8D12046BDE8F08110B526
:100340000446AFF300802046BDE81040FFF757BFDA
:10035000004870476002002021B1826842F001022B
:10036000826003E0826822F0010282607047000030
:1003700010B504461248844208D10121401501F00D
:10038000F5F90021601501F0F1F917E00D488442FC
:1003900008D10121001501F0E9F90021201501F033
:1003A000E5F90BE00848844208D10121C80301F0B7
:1003B000DDF900214FF4004001F0D8F910BD000034
:1003C0000024014000280140003C0140014600207B
:1003D0008A6802F004020AB1012000E000207047A0
:1003E0000146C86C80B270470246002013680B407B
:1003F0000BB1012000E000207047014600208A6810
:1004000002F008020AB1012000E00020704700005D
:1004100030B502460020002350680F4C20400D7973
:100420000C6844EA05242043506090680B4C20403F
:10043000D1E902542C434D7944EA450420439060AD
:10044000D06A20F470000C7C641EE4B2234340EABE
:100450000350D06230BD0000FFFEF0FFFDF7F1FF5A
:10046000F0B504460D4600200021092D11DDE0689D
:10047000A5F10A0606EB4607072606FA07F18843A8
:10048000A5F10A0606EB460603FA06F10843E0600A
:100490000CE0206905EB4507072606FA07F18843BB
:1004A00005EB450603FA06F108432061072A0FDA37
:1004B000606B561E06EB86071F2606FA07F1884377
:1004C000561E06EB860605FA06F10843606322E035
:1004D0000D2A0FDA206BD61F06EB86071F2606FAB9
:1004E00007F18843D61F06EB860605FA06F1084396
:1004F000206310E0E06AA2F10D0606EB86071F26D6
:1005000006FA07F18843A2F10D0606EB860605FA06
:1005100006F10843E062F0BD816841F008018160A6
:10052000704721B1826842F4A002826003E08268D1
:1005300022F4A00282607047816841F0040181606A
:100540007047000000B587B001214FF4037001F03F
:10055000FDF84FF4004001F0DDF80320ADF8040091
:1005600000208DF8070003208DF8060001A91B4824
:1005700000F048FCA320ADF8040001A9184800F0E1
:1005800041FC1848FFF7F4FE002002908DF80C00A3
:100590008DF80D004FF4602004900020059001209C
:1005A0008DF8180002A90F48FFF732FF01210D480E
:1005B000FFF7D2FE0B48FFF7AFFF00BF0948FFF778
:1005C0001CFF0028FAD10748FFF7B6FF00BF054817
:1005D000FFF7FCFE0028FAD107B000BD000C014077
:1005E000000801400024014000BFFEE70146CAB2F6
:1005F0000B1243EA0220704708B50020009022E168
:100600009748008800F00F00964908700846007867
:1006100000287CD1944800689449088008460088E6
:1006200000F03000924908809048008800F4405063
:100630008E4908808C4909684BF6BF7201EA0200B6
:1006400080F4005080F0200040F4004141F080012F
:10065000854A11608248008800F0100090BB104667
:10066000006848F60F7108401146086000F00EFD62
:100670007D4909684BF6BF7201EA02007B4909888F
:1006800001F4805109B180F480507849098801F45F
:10069000005109B180F400507549098801F010013A
:1006A00009B180F010007249098801F0200109B1F8
:1006B00080F0200081B241F4004141F080016A4A9B
:1006C000116008BDFFE76848006880B20090BDF87F
:1006D000000000F40060B0B363480068C0F30E008F
:1006E00048F68F7108406049086001F0C5FA5E491C
:1006F00009684BF6BF7201EA02005C49098801F4FF
:10070000805109B180F480505849098800E056E0D2
:1007100001F4005109B180F400505549098801F0F5
:10072000100109B180F010005149098801F0200141
:1007300009B180F0200081B241F4004141F0800114
:10074000494A1160BDE7FFE7BDF8000000F4004032
:10075000002878D044480068C0F30E0048F68F7136
:1007600008404149086000F053FF3F4909684BF6D3
:10077000BF7201EA02003D49098801F4805109B1C4
:1007800080F480503949098801F4005109B180F49E
:1007900000503749098801F0100109B180F01000BC
:1007A0003349098801F0200109B180F0200081B2AD
:1007B00041F4004141F080012B4A116081E7294852
:1007C00000782C4901EB8000D0F8000C80B200903A
:1007D000BDF8000000F40040C0B12248007801EBF1
:1007E0008000D0F8000CC0F30E0048F68F7108406E
:1007F0001C4909781F4A02EB8101C1F8000C194914
:100800000978491E1C4A52F821008047BDF80000B3
:1008100000F08000B8B113480078164901EB800061
:10082000D0F8000C48F60F7108400E490978114ABB
:1008300002EB8101C1F8000C0A490978491E0F4AF0
:1008400052F82100804708484430006880B20449CB
:10085000088000F4004000287FF4D2AE00BF30E7EB
:100860006C00002038000020005C00404C0000209C
:100870004E0000200050004094000020780000202E
:100880000B4A02EB8001D1F8001C01F4804171B1E8
:1008900002EB8001D1F8001C48F68F7211404CF237
:1008A00080021143024B03EB8002C2F8001C704728
:1008B000005000400B4A02EB8001D1F8001C01F00F
:1008C000400171B102EB8001D1F8001C48F68F7233
:1008D000114048F2C0021143024B03EB8002C2F800
:1008E000001C704700500040084A02EB8001D1F81C
:1008F000001C48F68F62114048F280021143034BFE
:1009000003EB8002C2F8001C70470000005000405A
:100910002DE9F0472848006800F110052E88264888
:100920000068077AD6B9042F18D124480078012826
:100930000FD100212248006880B2801C214A42F871
:10094000101030202049088000BF00201B4908708B
:1009500003E0072710201C49088027E0AC88A64246
:1009600001D8042000E002200746B44200D93446F2
:10097000A0B2A96888478046002000F029FB814684
:10098000A2B24946404602F07BF8A1B2002001F035
:100990009BF82888001B28806888204468803020C5
:1009A0000949088000020949088000BF0249096816
:1009B0000F72BDE8F08700003C00002034000020EA
:1009C000505C0040006000404E0000204C000020C1
:1009D0002DE9F0412848006800F110042688A0683D
:1009E000C0B1BEB1A588B54200D93546A8B2A1684C
:1009F000884707462088401B208060882844608004
:100A0000002000F0D5FA8046AAB24146384600F0F0
:100A100027FE00BF208850B14FF44050174908808E
:100A20000021084601F050F8302015490880208840
:100A3000A188884204DB03200F490968087218E086
:100A40002088002804DD05200B490968087210E0A1
:100A5000208870B9062008490968087200210948F1
:100A6000006880B2801C084A42F810103020044907
:100A70000880BDE8F08100003C0000204C00002010
:100A80004E000020505C0040006000402DE9F84F0F
:100A90009B48006845780027BA46062D1BD1984828
:100AA0000068007800F07F00002813D1944909689D
:100AB0008878012803D193490968CF690AE00228A0
:100AC00003D1904909680F6A04E0032802D18D49D7
:100AD00009684F6A94E0002D64D189480068408815
:100AE00000285FD186480068C08802285AD184480F
:100AF00000680079002855D181480068007800F02E
:100B00007F0028B97E480068808808B97E4F77E06A
:100B10007B480068007800F07F00012810D17849F8
:100B200009684879774909688A690021904700284F
:100B300066D173480068807A002861D0724F5FE008
:100B40006F480068007800F07F00022858D16C4898
:100B50000068407900F00F0669480068407900F0AD
:100B6000700967480068407900F0800038B1674933
:100B700001EB8600D0F8000C00F0300806E0634975
:100B800001EB8600D0F8000C00F440586048007873
:100B9000B04235D9B9F1000F32D1B8F1000F2FD0E2
:100BA000594F2DE0082D07D155480068007800F016
:100BB0007F0028BB574F23E00A2D21D15048006801
:100BC000007800F07F0001281AD14D480068807A33
:100BD000B0B14B480068408890B949480068007936
:100BE00070B947480068C088012809D1444909689C
:100BF0004879444909688A690021904700B9464FFD
:100C000057B13F480068A0F812A03D4800688761CE
:100C10000020B84700240FE0394A12685078394A5A
:100C20001268116988470446032C05D1092034490C
:100C300009680872BDE8F88F31480068008A4FF6ED
:100C4000FF71884204D109202D4909680872F1E733
:100C5000022C03D02A480068008A20B908202849BD
:100C600009680872E6E726480068007800F080000E
:100C7000E0B323480068C088009021480068008ADB
:100C80000099884204D91E4900980968088223E027
:100C90001B480068008A1A490968C98888421BDA1B
:100CA00017480068008A1749096891F82C10884293
:100CB00003DA0020194908700EE011480068008A24
:100CC0001049096891F82C1090FBF1F201FB120019
:100CD00010B90120114908700A48006890F82C10DA
:100CE000074800688182FFF713FE07E0FFE7032053
:100CF00003490968087200030949088000BF99E7A1
:100D00003C00002040000020191F00080050004057
:100D1000B40000209D1E0008ED1E000834000020D5
:100D20004C00002070470000012001490870704706
:100D30005000002001490860704700001404014081
:100D4000002123498279002A3AD00A4612680368B2
:100D50009A430B461A600A1D126803689A430B1DDA
:100D60001A60027911440A6803681A430A60184A33
:100D70000832126803689A43154B08331A601A1D2B
:100D8000126803689A43124B0C331A604279102A96
:100D90000ED11A1F126803681A430D4B08331A60EC
:100DA0001A1D126803681A43094B0C331A600DE0D0
:100DB0000749427911440A6803681A430A6005E04A
:100DC000027911440A6803689A430A607047000078
:100DD0000004014010B503A0FFF73AFA03200849C8
:100DE000086010BD75736220656E746572206C6F4B
:100DF0007720706F776572206D6F64650D0A000053
:100E00004C0100202DE9F04102460025002600207B
:100E100000230024002791F803C00CF00F0591F87F
:100E200003C00CF0100CBCF1000F03D091F802C00D
:100E30004CEA050591F800C0BCF1000F31D01468F0
:100E400000202BE04FF0010C0CFA00F3B1F800C0C9
:100E50000CEA03069E4220D183004FF00F0C0CFADF
:100E600003F7BC4305FA03FC4CEA040491F803C001
:100E7000BCF1280F06D14FF0010C0CFA00FCC2F8AF
:100E800014C00AE091F803C0BCF1480F05D14FF03F
:100E9000010C0CFA00FCC2F810C0401C0828D1D389
:100EA0001460B1F800C0BCF1FF0F34DD54680020BD
:100EB0002EE000F1080C4FF0010808FA0CF3B1F82D
:100EC00000C00CEA03069E4221D183004FF00F0CB4
:100ED0000CFA03F7BC4305FA03FC4CEA040491F84E
:100EE00003C0BCF1280F05D100F1080C08FA0CF87A
:100EF000C2F8148091F803C0BCF1480F07D100F18B
:100F0000080C4FF0010808FA0CF8C2F81080401CD9
:100F10000828CED35460BDE8F0810000F0B50A4641
:100F2000002300240021002500F00046B6F1004F08
:100F300002D11D4EF16901E01B4E7168C0F30345FB
:100F400083B200F44016B6F5401F08D121F070615D
:100F5000154E766826F07066134F7E6012E000F43E
:100F60008016B6F5801F06D1032606FA05F4A143C4
:100F700041F0706106E0460D360103FA06F6B14312
:100F800041F0706122B1460D360103FA06F6314395
:100F900000F00046B6F1004F02D1034EF16101E0CE
:100FA000014E7160F0BD000000000140016170471A
:100FB00001460548006880B200EBC100001D034AED
:100FC00032F8100080B27047505C00400060004072
:100FD00001460548006880B200EBC100034A32F8C0
:100FE000100080B270470000505C0040006000407C
:100FF00010B504460723012221460948FFF730FABD
:1010000001210748FFF78DFA00BF02210448FFF7CE
:10101000EBF90028F9D00248FFF7E2F910BD000013
:10102000002401402DE9F04107460C46002500262A
:1010300008E03846FFF7DCFF0544012001F062FDBF
:10104000701CC6B2A642F4DBB5FBF4F080B2BDE87A
:10105000F081000070B50A480468001D0568001D95
:101060000668344454B108220649204600F046F888
:10107000042204491031284600F040F870BD0000F9
:10108000E8F7FF1F5300002000BFFEE710B5184827
:101090000068047A022C01D0042C05D1FFF738FC3B
:1010A00013480068047A1CE0062C19D11048006827
:1010B000407805280ED10E480068007800F07F00C7
:1010C00040B90B490968C87800F054FC094909681F
:1010D000086A80470849096888688047082400E052
:1010E0000824034909680C7200F0D0FA10BD000012
:1010F0003C000020480000204000002030B50B4696
:10110000002100BF16E00A24B4EB107F05D930247B
:1011100004EB107403F8114005E0412404EB107453
:101120000A3C03F81140000100254C00641C1D55C9
:101130004C1CE1B29142E6DB30BD10B504460822FA
:101140002146812001F07EFB012000F0EBFC10BD68
:1011500070B504460025062C18D1184800680078A0
:1011600000F07F00012811D114480068407968B967
:10117000124800688078222801D1114D10E00F48F4
:101180000068807821280BD10E4D09E00B480068DB
:10119000007800F07F00212802D1032C00D10A4DF5
:1011A0000DB9022070BD0548006885610021034823
:1011B000006841820020A8470020F3E73C0000209F
:1011C00025120008F51100080912000810B50446A0
:1011D0000249204600F078FE10BD000014010020F6
:1011E00010B504460249204600F06EFE10BD000016
:1011F0000C01002010B504460249204600F064FEB0
:1012000010BD000024010020014629B90120034A35
:1012100012681082002070470148FCE73C00002063
:10122000B000002010B504460249204600F04CFEF4
:1012300010BD00001C01002070B50546064800687E
:10124000C478042C01DD002070BD044800EBC4010B
:10125000284600F039FEF7E73C0000202C01002072
:101260000246002901DD02207047002A01DD02202C
:10127000FAE70020F8E7000000B5024606480068DB
:10128000007800F07F00212804D10B2A02D100F061
:1012900069F800BD0220FCE73C00002010B50020EA
:1012A00023490968887222490968C8722148C079AF
:1012B0001F4909684872002000F054FB4FF4007188
:1012C000002000F049FC1021002000F00BFC182148
:1012D000002000F077FB5821002000F0E5FB002003
:1012E000FFF702FB144890F82C10002000F07CFB64
:1012F000002000F0BFFB4FF4C061012000F02CFC87
:101300004FF48071012000F0CFFB0421012000F098
:10131000DBFB0021012000F08DFB2021012000F0EB
:10132000E1FB002000F026FB01200449086010BD0D
:101330003C0000209E2C0008B80000204C0100203A
:101340000348817A11B10521024A116070470000FB
:10135000240200204C01002004200149086070474D
:101360004C01002003480068C17803480160002058
:10137000704700003C000020B0000020704770471C
:1013800010B5FFF767FE002005490968887200F074
:10139000A1F901F045FA00200249086010BD0000E3
:1013A0003C0000204C01002008B50121182000F06D
:1013B000CDF90121084600F0C9F901211048FFF7D5
:1013C000ADFD10208DF8030003208DF802001820D9
:1013D000ADF8000069460B48FFF714FD4FF460407C
:1013E000ADF8000069460848FFF70CFD18210548D4
:1013F000FFF7DCFD4FF460410348FFF7D7FD08BD60
:1014000000023000000C01400010014010B5074CF4
:1014100007A0FEF71DFFA07A18B105200A49086051
:1014200002E001200849086010BD000024020020ED
:101430006C65617665206C6F7720706F77657220C0
:101440006D6F64650D0A00004C01002000BFFEE7CF
:101450007047704770B5002100230F22C47804B391
:10146000154C246804F4E064C4F5E064210AC1F179
:101470000403CA40447804FA03F1847814402143F9
:1014800009010E4C0678A155047804F01F050124CB
:10149000AC4005786D11AD0005F1E025C5F80041BF
:1014A00009E0047804F01F050124AC40044D0678DF
:1014B000761145F8264070BD0CED00E000E400E038
:1014C00080E100E002490143024A116070470000D8
:1014D0000000FA050CED00E070B5022647480068F0
:1014E000447846480068007800F07F00002844D126
:1014F000092C03D100F090FD06465FE0052C14D1C5
:101500003E480068C0787F280BDC3C480068807843
:1015100038B93A480068808818B938480068807A35
:1015200008B1082565E0002648E0032C0ED13348B9
:101530000068C078012807D130480068808818B951
:1015400000F08EFD064639E0022637E0012C35D149
:101550002A480068C07801280DD128480068808892
:1015600048B926480068407A00F0200018B100F021
:10157000DFFB064622E0022620E0204800680078D3
:1015800000F07F00012805D10B2C17D100F0E4FDFD
:10159000064613E019480068007800F07F00022832
:1015A0000BD1012C03D100F0C3FB064606E0032C4F
:1015B00004D100F069FD064600E002264EB1E0B21B
:1015C0000F4A1268516988470646032E01D1092542
:1015D0000FE00EB108250CE006250021094800683F
:1015E00080B2801C084A42F8101030200749088059
:1015F00000BF024909680D7270BD00003C00002068
:1016000040000020505C0040006000404E00002080
:1016100010B511480068047A022C01D0042C01D1C5
:10162000082412E0032C01D0052C05D1FFF7D0F9D6
:1016300009480068047A08E0072C05D107490968C1
:10164000C8688047082400E00824034909680C7230
:1016500000F01CF810BD00003C00002040000020FD
:10166000F0B5561C7510074E06EB41042B4605E0FD
:1016700034F8047B20F8017B401C5B1E002BF7D163
:10168000F0BD0000006000407047000010B50D483C
:1016900090F82C10002000F0A7F90B480068007AA1
:1016A000082805D14002094908801020084908800F
:1016B00005480068007A092801D1012010BD0020EA
:1016C000FCE70000B80000203C0000204C00002097
:1016D0004E00002010B5012000F020FF01240B482F
:1016E000046000200A49088008460088074908600D
:1016F0000020091D08604FF4E050054908800846A5
:10170000008802490860002010BD0000405C0040D5
:101710004600002001460020034A506820F4404063
:1017200008435060704700000010024029B1064A8B
:10173000D2690243044BDA6104E0034AD26982436E
:10174000014BDA61704700000010024029B1064ADF
:1017500092690243044B9A6104E0034A926982430E
:10176000014B9A61704700000010024029B1064AFF
:10177000D2680243044BDA6004E0034AD268824331
:10178000014BDA60704700000010024030B50021C4
:101790000022002400232D4D6D6805F00C0121B1BD
:1017A000042905D0082923D105E0294D056022E050
:1017B000274D05601FE0254D6D6805F47012234D1F
:1017C0006D6805F48034022505EB92421CB9214D69
:1017D000554305600BE01D4D6D6805F400351DB1E6
:1017E0001C4D5543056002E0194D5543056002E06C
:1017F000174D056000BF00BF144D6D6805F0F00186
:101800000909154D6B5C0568DD4045600F4D6D683D
:1018100005F4E061090A104D6B5C4568DD408560A8
:101820000A4D6D6805F46051C90A0B4D6B5C456843
:10183000DD40C560054D6D6805F44041890B074DDD
:101840006B5CC568B5FBF3F5056130BD0010024067
:1018500000127A0000093D001E0000202E0000202A
:101860000149086070470000D800424270B5054643
:10187000072D01D02E4805702D48007808284ED23B
:10188000DFE800F004111A202B384E4F2948006879
:1018900028B900F053F806202549087002E0052019
:1018A0002349087041E000F049F8042020490870FD
:1018B00001202049086038E002201D4948700320BB
:1018C000087032E01A484078401E194948700846AE
:1018D000407808B90420087027E01748006884B2EF
:1018E00044F01004144804600520114908700A20CF
:1018F00048701AE00E484078401E0D49487008466E
:10190000407858B90C48006884B224F010040A48A2
:1019100004600620087000200649086005E000BF4A
:1019200000BF06200249087000BF00BF70BD000064
:101930005101002054010020405C004010B50748D0
:10194000006884B224F0040404480460FFF75EFDDC
:101950004FF43F400149086010BD0000405C00406A
:10196000704700004FF6F8710140014A116070475E
:10197000505C004030B501460F4B1A78002014E04F
:1019800003060E4C04EB9353D3F8003C48F68F74D7
:10199000234048F280042343C4B223430406074D86
:1019A00005EB9454C4F8003C401C9042E8D341F04D
:1019B0008003034C236030BDB40000200050004081
:1019C0004C5C004010B54A105300054A126892B2B0
:1019D00002EBC002121D034C44F8123010BD00008F
:1019E000505C00400060004010B502460F4800689F
:1019F00080B200EBC200801D0D4C04EB40033E2979
:101A00000BDD481101F01F040CB9441EA0B24FF4C5
:101A1000004444EA80241C6007E0481001F00104FF
:101A20000CB1441CA0B284021C6010BD505C00408C
:101A30000060004030B50E4C04EB8003D3F8003C4E
:101A40004BF68F7403EA040201F480530BB182F465
:101A5000805201F400530BB182F4005242F400436F
:101A600043F08003024D05EB8004C4F8003C30BD18
:101A70000050004010B50B4B03EB8002D2F8002C55
:101A80004BF68F7302EA030181F4805181F4005117
:101A900041F4004242F08002024C04EB8003C3F8A0
:101AA000002C10BD0050004010B54A105200044BED
:101AB0001B689BB203EBC003024C44F8132010BD1B
:101AC000505C004000600040044A126892B202EB91
:101AD000C002921C024B43F812107047505C004049
:101AE0000060004030B50E4C04EB8003D3F8003C9E
:101AF00048F6BF7403EA040201F010030BB182F050
:101B0000100201F020030BB182F0200242F40043E6
:101B100043F08003024D05EB8004C4F8003C30BD67
:101B20000050004010B50B4B03EB8002D2F8002CA4
:101B300048F6BF7302EA030181F0100181F0200131
:101B400041F4004242F08002024C04EB8003C3F8EF
:101B5000002C10BD0050004010B5074B03EB800275
:101B6000D2F8002C48F68F131A400A43024C04EBBB
:101B70008003C3F8002C10BD0050004010B500F0E9
:101B800001F810BD0CB500200190009033480068AA
:101B900040F480303149086000BF3048006800F4EC
:101BA000003000900198401C0190009818B90198ED
:101BB000B0F5A06FF1D12948006800F4003010B1F1
:101BC0000120009001E0002000900098012843D1FE
:101BD0002348006840F0100021490860084600686A
:101BE00020F0030008600846006840F0020008602A
:101BF0001A484068194948600846406848600846E5
:101C0000406840F4806048600846406820F47C10DA
:101C100048600846406840F4E8104860084600689C
:101C200040F08070086000BF0C48006800F0007051
:101C30000028F9D00948406820F0030007494860AF
:101C40000846406840F00200486000BF0348406812
:101C500000F00C000828F9D10CBD00000010024073
:101C60000020024010B50020FFF7FAFD0121C80551
:101C7000FFF75CFD10BD000038B50124294800685D
:101C800080B2001D284931F8100080B201EB4000FD
:101C9000009026480068007A092832D00098007821
:101CA0002249096808700098401C0090009800784C
:101CB0001E49096848700098401C0090009800EB8D
:101CC00044000090009931F8020B0091FEF78EFC61
:101CD000164909684880009800EB4400009000997C
:101CE00031F8020B0091FEF781FC104909688880E9
:101CF000009800EB44000090009800880B490968A8
:101D0000C880012009490968087208480068C0882D
:101D100010B9FFF7E1FB01E0FEF7B8FEFFF7B6FCF4
:101D200038BD0000505C0040006000403C000020D6
:101D30002DE9F04754480068007800F07F08B8F1BA
:101D4000000F0AD150480068407A00F0DF004E4989
:101D5000096848720020BDE8F087B8F1020F7CD115
:101D600049480068408818B947480068007908B1B8
:101D70000220F0E7DFF8149143480068477927F024
:101D800080052C4640480068407900F0800038B15A
:101D90003F4901EB8400D0F8000C00F0300606E06B
:101DA0003B4901EB8400D0F8000C00F4405699F850
:101DB0000000A84204D91EB133480068807A08B9EF
:101DC0000220C8E707F0800080B1314901EB8400B0
:101DD000D0F8000C00F0300010284BD1E0B2FEF734
:101DE00069FDE0B23021FFF77DFE43E0284901EBB9
:101DF0008400D0F8000C00F44050B0F5805F39D179
:101E0000E4B9244A92F82C10E0B2FFF7EDFD204A25
:101E100002EB8401D1F8001C4BF68F7201EA02003C
:101E200080F4805080F4005040F4004141F0800183
:101E3000174B03EB8402C2F8001C1BE0E0B2FEF774
:101E40001FFD134A02EB8401D1F8001C4BF68F7280
:101E500001EA020080F4805000E011E080F40050BC
:101E600040F4004141F08001094B03EB8402C2F8C9
:101E7000001C00BF084909684869804700206AE7DC
:101E800000BF022067E700003C000020B4000020F3
:101E900000500040B80000204800002010B5044663
:101EA0002CB90120064909680882002010BD0549A7
:101EB000096808688047024800680A30F6E70000B1
:101EC0003C0000204800002010B50246064800688B
:101ED000438A32B98888C01A034C246820820020C3
:101EE00010BD08681844FBE73C00002010B504460C
:101EF0002CB90120064909680882002010BD054957
:101F0000096888688047024800680C30F6E70000DE
:101F10003C0000204800002010B504462CB90220E7
:101F2000394909680882002010BD0020374908801F
:101F300035480068007800F07F0018BB3249096816
:101F4000487A00F0200131B13049097841F00201AE
:101F50002E4A117005E02D49097801F0FD012B4A48
:101F6000117000F0400131B12849097841F00101B8
:101F7000264A117005E02549097801F0FE01234A3F
:101F800011703AE020480068007800F07F000128D6
:101F900001D11E48C8E71C480068007800F07F00A7
:101FA000022828D1184A1268517901F00F0001F077
:101FB00080027AB1164B03EB8002D2F8002C02F0BB
:101FC0003002102A16D1114A127842F001020F4B4A
:101FD0001A700FE00E4B03EB8002D2F8002C02F4D3
:101FE0004052B2F5805F05D1084A127842F00102F2
:101FF000064B1A7001E0002096E706490968086957
:102000008047024890E700003C000020320000209A
:10201000005000404800002010B50E480068C0780D
:102020000D494978884213DC0A480068807878B9FD
:1020300008480068808858B906480068C078054993
:10204000096888720549096848688047002010BD02
:102050000220FCE73C000020B400002048000020E3
:1020600010B507480068407A40F02000044909682C
:10207000487204490968C8698047002010BD000003
:102080003C000020480000202DE9F0412E48006867
:10209000467926F080073C462B480068407900F0DE
:1020A000800038B1294901EB8400D0F8000C00F021
:1020B000300506E0254901EB8400D0F8000C00F45F
:1020C000405523480078A04208D91F48006840883E
:1020D00020B91DB11C480068807A10B90220BDE803
:1020E000F08106F08000A0B1184A02EB8401D1F81B
:1020F000001C48F6BF7201EA020080F0100040F4B4
:10210000004141F08001114B03EB8402C2F8001C36
:1021100014E00E4A02EB8401D1F8001C4BF68F72DA
:1021200001EA020080F4805040F4004141F0800157
:10213000064B03EB8402C2F8001C00BF0549096886
:10214000886980470020CAE73C000020005000401A
:10215000B40000204800002010B5174B1B68D97848
:10216000154B1B685879154B1B689A6990470446B4
:1021700011480068807AE8B13CB90F4800680079DE
:1021800018B90D480068807808B1022010BD8CB9DC
:102190000B490968C86880470748006840790649C4
:1021A0000968C87204480068C07803490968087360
:1021B0000020EBE70220E9E73C000020400000207F
:1021C0004800002038B50025002000902148006814
:1021D00084B200BF09E0204901EB8500D0F8000C73
:1021E00080B21E4941F825006D1C082DF3D344F43C
:1021F00080641848046044F00104046024F0010481
:10220000046000BF1348001D006800F480600028CF
:10221000F8D04FF6FF300F49091D0860002509E08E
:102220000E4850F8250080B20B4A02EB8501C1F838
:10223000000C6D1C082DF3D344F00804054804601D
:10224000006884B244F0040402480460FEF7C2FD52
:1022500038BD0000405C00400050004040020020BB
:10226000042808D14FF0E021096941F004014FF042
:10227000E022116107E04FF0E021096921F004013B
:102280004FF0E022116170477047000010B513480D
:10229000006840F001001149086008464068104994
:1022A00008400E494860084600680E4908400B493E
:1022B00008600846006820F48020086008464068EE
:1022C00020F4FE0048604FF41F008860FFF756FCC2
:1022D0004FF000600449086010BD0000001002408B
:1022E0000000FFF8FFFFF6FE08ED00E010B540F239
:1022F00025511D4800F04AF810B31B4800F002F9C0
:10230000C4B21A48008800F40040C8B917480088D1
:1023100000F4804060B10A2C03D0002013490880EB
:1023200020E01248008840F400401049088019E07D
:102330000D2C06D10D48008840F480400B490880E0
:1023400010E00A480088C0F30D0009490C54074802
:102350000088401C0549088008460088C72801DD20
:102360000020088010BD0000003801401C00002043
:102370005C01002021B1828942F40052828104E094
:1023800082894DF6FF731A408281704770B502460C
:10239000002400230025002040F66A16B14200D137
:1023A00000BFC1F3421501F01F03012606FA03F333
:1023B000012D02D19689334006E0022D02D1168A02
:1023C000334001E0968A33400C12012606FA04F4E9
:1023D0001688344013B10CB1012000E0002070BD1C
:1023E000F0B50346002400260025002040F66A17B9
:1023F000B94200D100BF1846C1F3421401F01F06D4
:10240000012707FA06F5012C01D10C3004E0022C5B
:1024100001D1103000E014301AB107682F43076073
:1024200002E00768AF430760F0BD00002DE9F04708
:1024300086B005460E460024A24600BFA1460027EE
:10244000B08900B100BF2F462C8A4CF6FF700440C3
:10245000F08804432C82AC894EF6F3100440B08817
:1024600031890843718908430443AC81AC8A4FF633
:10247000FF400440B0890443AC8201A8FFF786F90D
:102480001F48874202D1DDF810A001E0DDF80CA062
:10249000A88900F4004040B10AEBCA0000EB0A1022
:1024A00031684900B0FBF1F807E00AEBCA0000EB25
:1024B0000A1031688900B0FBF1F86420B8FBF0F035
:1024C00004012009642101FB1089A88900F400405F
:1024D00040B1322000EBC900B0FBF1F000F0070082
:1024E000044308E0322000EB09106421B0FBF1F056
:1024F00000F00F0004432C8106B0BDE8F087000017
:102500000038014001468888C0F30800704710B5C4
:102510004FF48020FEF70EFC10BD000010B50446FD
:102520001CB104A0FDF794FE02E008A0FDF790FEA8
:1025300010BD00007573622070756C6C2075702082
:10254000656E61626C650D0A0000000075736220A3
:1025500070756C6C2075702064697361626C650DB8
:102560000A00000010B50848084908600220096800
:102570000872074807490860074808490860054984
:1025800009680868804710BD240200203C00002034
:10259000B800002040000020E80000204800002093
:1025A0000EB54FF48020FEF7C5FB4FF4802000905D
:1025B00008208DF8050001208DF806006846FEF71A
:1025C000BFFB14208DF8080001208DF809000020C1
:1025D0008DF80A0001208DF80B0002A8FEF73AFFE3
:1025E0002A208DF8080000208DF8090002A8FEF7C7
:1025F00031FF0EBD10B588B00024684800686849F6
:1026000008800846008800F40040664909880840B0
:1026100008B1FDF7F1FF6248008800F4806061496D
:102620000988084030B14FF6FF305C4908605E49C8
:10263000486880475A48008800F400505949098882
:10264000084018B14DF6FF7054490860544800889E
:1026500000F4805053490988084030B14EF6FF70AD
:102660004E4908600020FFF701F94D48008800F44A
:1026700000604C490988084060B14C48007810B1AE
:10268000FFF7A0FD02E00220FFF7F0F84FF2FF7025
:10269000424908604248008800F4007041490988B6
:1026A000084040B14FF6FF503C4908604048007870
:1026B000401C3F4908703A48008800F4807039494E
:1026C00009880840002866D04FF6FF60334908604B
:1026D000081D006800F40040002856D03548006806
:1026E000401C3449086008460068032850D92B482C
:1026F000001F006800F00800002849D12748001F8B
:10270000006880B22C490860002408E02B4901EBE6
:102710008400D0F8000C80B24DF82400641C082C12
:10272000F4D32548006840F00100234908600846BA
:10273000006880B21949091F08601F48006820F02E
:1027400001001D4908600846006880B21349091F4E
:10275000086000BF1148006800F480600028F9D0CC
:102760004FF6FF300D490860002408E05DF82400B2
:1027700080B2124A02EB8401C1F8000C641C082CE0
:10278000F4D300200B49086002E0002009490860EA
:102790000720FFF76BF808B010BD0000445C004054
:1027A0006C00002046000020B800002050010020EE
:1027B0006E000020700000207400002000500040D7
:1027C00010B5FFF717FF10BD10B504460121042016
:1027D000FEF7BCFF3CB10F48006880B220F0020059
:1027E0000C49086014E00B48006880B240F0020019
:1027F000084908600848006820F47F2006490860FE
:102800000846006840F44C30086000200349086026
:1028100010BD0000405C004004080140B0012142AE
:102820000020064908604FF43F40054908800846EB
:1028300000880249091F086000207047445C00407E
:10284000460000202DE9F04104460E46154604F0EE
:102850007F00FEF7BDFB0746AAB23946304600F0BE
:102860000FF9A9B204F07F00FFF72EF90020BDE8B0
:10287000F08100002DE9FC47002000900190052127
:102880000846FEF7CFFB074605210720FEF7CAFBE7
:102890008146B7F5FA7F09DA00207249087072495B
:1028A000086001207149C1F890011CE0B7F5166F6E
:1028B0000BDD40F6AC50874207DA00206C49087007
:1028C00001206949083908600DE040F2DC50874278
:1028D00009DDB7F5166F06DA01206549087000209A
:1028E000614908390860B9F5FA7F09DA01205D49C4
:1028F00008705D49086000205C49C1F8900107E05C
:10290000B9F5166F03DD40F6AC50814500DB00BF22
:102910005448007801281BD155480078012805D17A
:1029200005210020FEF77EFB044601E04FF4FA6427
:1029300005210920FEF776FB054605210820FEF754
:1029400071FB804605210120FEF76CFB06461DE069
:1029500044480078D0B905210920FEF763FB0446FE
:1029600043480078012805D105210020FEF75AFBD5
:10297000054601E04FF4FA6505210120FEF752FB00
:10298000804605210820FEF74DFB064640F61C4018
:10299000864206DD01203749087011208DF80300BA
:1029A00008E0B6F57A7F05DA10208DF803000120E3
:1029B0003049087040F6AC50844206DD01202D49B4
:1029C00008700D208DF8030008E0B4F5167F05DAD5
:1029D0000E208DF8030001202649087040F6AC5007
:1029E000854206DD1A208DF8040001202149087077
:1029F00008E0B5F5167F05DA16208DF804000120F1
:102A00001C490870B8F57A7F06DA07208DF80500B2
:102A100001201849087009E040F61C40804505DD9A
:102A200004208DF805000120124908701148007833
:102A300030B10120104908706846FEF77EFB0EE0B9
:102A40000D48007858B100200B4908708DF803003C
:102A50008DF804008DF805006846FEF76EFBBDE8B2
:102A6000FC8700005A010020BC0122420080214264
:102A70005B010020580100205901002000BFFEE743
:102A8000F0B5144604F1010C4FEA6C07DFF824C0DE
:102A90000CEB41033D460AE00678401C90F800C06C
:102AA00046EA0C2223F8022B9B1C401C6D1E002DB5
:102AB000F2D1F0BD00600040014600BF7047000049
:102AC00010B56FF00400FFF7CBFB0A4800680A4915
:102AD000B0FBF1F0094908700846007800EB4001AE
:102AE000C1EBC0104FF6FF7101EAC0000449088035
:102AF00010BD00000000002000127A001400002029
:102B0000160000200146114A12884A434FF0E02384
:102B10005A6100229A611A46126942F001021A6152
:102B200000BF4FF0E022106900F001021AB100F47A
:102B30008032002AF5D04FF0E022126922F0010223
:102B40004FF0E0231A6100229A61704716000020BE
:102B500000BF054A128802F04002002AF9D0C2B232
:102B6000014B1B1D1A8070470038014000244FF4B0
:102B7000A060FEF7A7FCFFF7A3FF4FF4165000F08C
:102B800035F8FEF711FCFDF7DDFC4FF4E160FFF7CF
:102B9000B9FF0020FFF718FE4FF49670FFF7B2FF61
:102BA0000120FFF711FEFFF7FBFCFFF75BF8FFF7D3
:102BB000D9FC16E0FFF75EFE0A48006805280BD135
:102BC000C82C0CD100240848006808B9012000E096
:102BD00000200549086002E0002003490860601CED
:102BE000C4B2E7E74C0100208C81214210B586B0C9
:102BF0000446012144F20400FEF7A8FD4FF40070E2
:102C0000ADF8140003208DF8160018208DF8170079
:102C100005A91C48FEF7F6F84FF48060ADF81400E3
:102C200004208DF8170005A91648FEF7EBF82520BB
:102C30008DF8000003208DF801008DF802000120BE
:102C40008DF803006846FEF705FC01940020ADF8FE
:102C50000800ADF80A00ADF80C00ADF810000C202B
:102C6000ADF80E0001A90848FFF7E0FB012240F291
:102C700025510548FFF7B4FB01210348FFF77AFB14
:102C800006B010BD000801400038014012010002EA
:102C900000000040830410570002010203010902F2
:102CA0002200010100E032090400000103010100DB
:102CB000092100010001223D0007058103080020D1
:102CC00005010906A101050719E029E715002501FD
:102CD00095087501810295017508810395067508AF
:102CE00025FF190029658100250195027501050858
:102CF000190129029102950175069103C004030987
:102D0000042603530054004D006900630072006FF5
:102D10000065006C0065006300740072006F006E57
:102D200000690063007300220341004C0049004524
:102D3000004E00540045004B002000E689A7635573
:102D40000053004200209F07680000006C2D00081F
:102D5000000000205C0100006C010008FC2D000850
:102D60005C01002064070000C80100081184A24A29
:102D700004E00901020304060708092916691A0577
:102D80001E0204060815011A03531254124D123381
:102D9000021C3213290D0C30085314044123020184
:102DA00013811314089D121B087D081A7F04135108
:102DB000111B0879101A61041AE10C1ACD041A3992
:102DC0000C413240293C1A41280916581A591C1343
:102DD0008C2C3308121A9E0832221AC008323D1A6F
:102DE000B00832091AFD082A04E4122D3308261A05
:0C2DF00027082928225173201A199B91F2
:0400000508000131BD
:00000001FF
